{
  "_format": "hh-sol-artifact-1",
  "contractName": "Test",
  "sourceName": "contracts/test.sol",
  "abi": [
    {
      "inputs": [
        {
          "internalType": "uint256",
          "name": "_increment",
          "type": "uint256"
        }
      ],
      "stateMutability": "nonpayable",
      "type": "constructor"
    },
    {
      "inputs": [],
      "name": "addIncrement",
      "outputs": [
        {
          "internalType": "uint256",
          "name": "",
          "type": "uint256"
        }
      ],
      "stateMutability": "nonpayable",
      "type": "function"
    },
    {
      "inputs": [],
      "name": "count",
      "outputs": [
        {
          "internalType": "uint256",
          "name": "",
          "type": "uint256"
        }
      ],
      "stateMutability": "view",
      "type": "function"
    }
  ],
  "bytecode": "0x608060405234801561001057600080fd5b506040516102ec3803806102ec83398181016040528101906100329190610082565b80600181905550600a600081905550506100af565b600080fd5b6000819050919050565b61005f8161004c565b811461006a57600080fd5b50565b60008151905061007c81610056565b92915050565b60006020828403121561009857610097610047565b5b60006100a68482850161006d565b91505092915050565b61022e806100be6000396000f3fe608060405234801561001057600080fd5b50600436106100365760003560e01c806306661abd1461003b578063af2f81ed14610059575b600080fd5b610043610077565b60405161005091906100fd565b60405180910390f35b61006161007d565b60405161006e91906100fd565b60405180910390f35b60005481565b600061010060005411156100c6576040517f08c379a00000000000000000000000000000000000000000000000000000000081526004016100bd90610175565b60405180910390fd5b6001546000546100d691906101c4565b600081905550600054905090565b6000819050919050565b6100f7816100e4565b82525050565b600060208201905061011260008301846100ee565b92915050565b600082825260208201905092915050565b7f43616e206f6e6c7920636f756e7420757020746f203235362e00000000000000600082015250565b600061015f601983610118565b915061016a82610129565b602082019050919050565b6000602082019050818103600083015261018e81610152565b9050919050565b7f4e487b7100000000000000000000000000000000000000000000000000000000600052601160045260246000fd5b60006101cf826100e4565b91506101da836100e4565b92508282019050808211156101f2576101f1610195565b5b9291505056fea26469706673582212203ec6dce35c756fe02fa01eaf5989d510f77a837556348ce98fa6eae21d1ae31164736f6c63430008110033",
  "linkReferences": {},
  "deployedLinkReferences": {}
}